:040000000DEF00F010
:04000800DDEF00F038
:10001800FF0060EF01F00101018F040E43EC00F0D6
:100028001B6E1B50D8B41BEF00F01DEF00F038EF2B
:1000380000F0000E01014C6F380E4D6F000E4E6F30
:10004800000E4F6F600E006F970E016F000E026F6B
:10005800050E046F050E056F180E066F000E076F6C
:10006800060E43EC00F01B6E010E01015C6F040EDE
:100078005D6F600E5E6F010E5F6F1B5012001A6E8F
:10008800010E196E000E186E000E176E0101035155
:100098001A18F80B1A18036F6AEF00F01DB957EF1A
:1000A80000F059EF00F064EF00F0410E175C9C0E71
:1000B8001858D8A062EF00F064EF00F068EF00F085
:1000C800000E196E75EF00F0174A182A0239E83247
:1000D800070B1A18D8A473EF00F075EF00F052EF71
:1000E80000F019501200600030F517F5600034F583
:1000F80018F5600038F519F560003CF51AF5170E8B
:100108001B6E050E1C6E000E1E6E000E1D6E1D5021
:100118001B24D96E1E501C20DA6E010E1D24E16EC0
:10012800050E1E20E26EDFC4E7F41D4A1E2A1EBE1D
:10013800A7EF00F01E5009E1100E1D5CD8A0A7EF34
:1001480000F0A9EF00F08BEF00F01200000EBE6E79
:10015800000EBF6E000EC06E080ECA6EC668EF0EA7
:10016800C76E7F0EC86EBF0E0401106FF70E086FC2
:100178000069000E216F000E096F000E016F000E5E
:10018800116F04690C691469080E246F03690B69FF
:100198001369000E026F000E0A6F000E126F0B0E2D
:1001A80002013D6F460E0D6F160E726F200E186F0E
:1001B8001200A1AEE2EF00F0E4EF00F0F0EF00F083
:1001C800B1AEE9EF00F0EBEF00F0F0EF00F08AECF1
:1001D80001F0B19E01EF01F0A2A8F5EF00F0F7EFF2
:1001E80000F001EF01F0B2A8FCEF00F0FEEF00F024
:1001F80001EF01F08EEC01F0B2981100000E02013F
:10020800A56F000EA66F000EA76F000EA86F000E58
:10021800A96F000EAA6FB00EAB6F800EAC6F000E08
:10022800AD6F000EB26F000EB36F000EB16F000E0F
:10023800B06FA00EAE6F010EAF6F12004FEC01F061
:100248001F6E1650D8B42BEF01F02DEF01F039EFE7
:1002580001F01F50D8B433EF01F035EF01F039EF5A
:1002680001F077EC00F025EF01F025EF01F00DEF3C
:1002780000F0000E0001606F010E616F030E626FE7
:10028800E70E636F7F0E646FF70E656FF70E666F8C
:1002980067696869120084EC01F0AAEC00F03DEC93
:1002A80001F070EC01F002EC01F00FEC00F01C6EB4
:1002B8007CEC01F01C50120001EE01F1160EEE6A02
:1002C800E806FDE10401080E5D6F000E5E6F000E8A
:1002D8005F6F000122EF01F0600E0001AD6F000EAC
:1002E800AF6F000EB06F050EB16F000EB36F120046
:1002F800660E03011B6F196918699F0E1A6F1200A9
:10030800D68ED69AA288B298A18E1200010E156ECA
:0C031800B19E1200010E166EB19E120084
:020000040020DA
:10000000FF0FFF0FFF0FFF0FFF0FFF0FFF0FFF0F80
:10001000FF0FFF0FFF0FFF0FFF0FFF0FFF0FFF0F70
:020000040030CA
:100000008CFF37FF9FFFFFFFFFFFFFFFFFFFFFFF9B
:10001000FFFFFFFFFFFFFFFFFFFFFFFFFFFFFFFFF0
:04002000FFFFFFFFE0
:00000001FF
